:020000040000FA
:100000000C947C000C94A4000C94A4000C94A40008
:100010000C94A4000C94A4000C94A4000C94A400D0
:100020000C94A4000C94A4000C94A4000C94A400C0
:100030000C94A4000C94A4000C94A4000C94A400B0
:100040000C945C030C94A4000C94CC030C94A603B5
:100050000C94A4000C94A4000C94A4000C94A40090
:100060000C94A4000C94A400456E746572206F6E0D
:100070002073746174653A20004578697420667253
:100080006F6D2073746174653A20000000000023D6
:1000900000260029004163746976652073746174D9
:1000A000653A200000000000240027002A0000001C
:1000B0000000250028002B000404040404040404A8
:1000C0000202020202020303030303030102040803
:1000D00010204080010204081020010204081020B2
:1000E00000000008000201000003040700000000F7
:1000F00000000000FE03890811241FBECFEFD8E0E6
:10010000DEBFCDBF11E0A0E0B1E0EAEAF3E102C05A
:1001100005900D92A436B107D9F723E0A4E6B1E02B
:1001200001C01D92AD31B207E1F710E0CBE7D0E09E
:1001300004C02197FE010E949D08CA37D107C9F764
:100140000E9493050C94C8090C940000833081F040
:1001500028F4813099F08230A9F008958730A9F011
:100160008830C9F08430B1F4809180008F7D03C065
:10017000809180008F7780938000089584B58F7779
:1001800084BD089584B58F7DFBCF8091B0008F77BB
:100190008093B00008958091B0008F7DF9CF1F93B8
:1001A000CF93DF93282F30E0F901E052FF4F849185
:1001B000F901E453FF4FD491F901E854FF4FC49182
:1001C000CC23A9F0162F81110E94A600EC2FF0E09D
:1001D000EE0FFF1FE255FF4FA591B4918FB7F89432
:1001E000EC91111108C0D095DE23DC938FBFDF9115
:1001F000CF911F910895DE2BF8CFCF93DF9390E03E
:10020000FC01E453FF4F249188549F4FFC018491DB
:100210008823D1F090E0880F991FFC01EC55FF4F27
:10022000A591B491FC01E255FF4FC591D491623084
:1002300071F49FB7F8943C91822F809583238C931F
:10024000E8812E2B28839FBFDF91CF9108958FB730
:10025000F894EC912E2B2C938FBFF6CF2FB7F894F8
:100260006091690170916A0180916B0190916C01BC
:100270002FBF0895AF92BF92CF92DF92EF92FF927D
:100280000F931F93CF93DF936C017B018B01040FBE
:10029000151FEB015E01AE18BF08C017D10759F05A
:1002A0006991D601ED91FC910190F081E02DC6019C
:1002B0000995892B79F7C501DF91CF911F910F9196
:1002C000FF90EF90DF90CF90BF90AF900895FC012A
:1002D000538D448D252F30E0842F90E0821B930BAB
:1002E000541710F0CF96089501970895FC01918D51
:1002F000828D981761F0A28DAE0FBF2FB11D5D9654
:100300008C91928D9F5F9F73928F90E008958FEFF5
:100310009FEF0895FC01918D828D981731F0828DA9
:10032000E80FF11D858D90E008958FEF9FEF089500
:10033000FC01918D228D892F90E0805C9F4F821B64
:1003400091098F73992708958DE691E00E94980195
:1003500021E0892B09F420E0822F089580E090E0CD
:10036000892B29F00E94A40181110C9400000895AA
:10037000FC01A48DA80FB92FB11DA35ABF4F2C911A
:10038000848D90E001968F739927848FA689B78911
:100390002C93A089B1898C91837080648C93938D08
:1003A000848D981306C00288F389E02D80818F7DAB
:1003B00080830895EF92FF920F931F93CF93DF9363
:1003C000EC0181E0888F9B8D8C8D98131AC0E88991
:1003D000F989808185FF15C09FB7F894EE89FF8960
:1003E0006083E889F98980818370806480839FBFFE
:1003F00081E090E0DF91CF911F910F91FF90EF90FE
:100400000895F62E0B8D10E00F5F1F4F0F7311270D
:10041000E02E8C8D8E110CC00FB607FCFACFE88948
:10042000F989808185FFF5CFCE010E94B801F1CF17
:10043000EB8DEC0FFD2FF11DE35AFF4FF0829FB7BC
:10044000F8940B8FEA89FB8980818062CFCF0F936C
:100450001F93CF93DF938C01D0E0C0E0F801EC0F45
:10046000FD1F6491662341F08DE691E00E94DA0160
:10047000892B11F02196F2CFCE01DF91CF911F9100
:100480000F910895CF93DF93EC01888D8823B9F005
:10049000AA89BB89E889F9898C9185FD03C080818F
:1004A00086FD0DC00FB607FCF7CF8C9185FFF2CF0C
:1004B000808185FFEDCFCE010E94B801E9CFDF91A9
:1004C000CF910895FC0101900020E9F73197AF0129
:1004D000481B590BBC018DE691E00C943A01CF9377
:1004E000DF93D0E0C0E0009719F00E946202EC01B7
:1004F00088E191E00E9462028C0F9D1FDF91CF91F5
:10050000089588E690E00E942702E0910F03F091A1
:100510001003808191810C946F0289E790E00E9422
:100520002702E0910F03F0911003808191810C94D8
:100530006F020F931F93CF93DF93EC018B0186E043
:1005400090E00E94A308FC01AC81BD81118300836F
:1005500013821282B583A48388819981009771F4F4
:10056000FB83EA83FD83EC83FF83EE83019699830B
:100570008883DF91CF911F910F9108951396FC937B
:10058000EE931297FD83EC83F1CF0F931F93CF93DC
:10059000DF938C01C0911103D0911203F801C48B39
:1005A00086E090E00E94A308FC01A0911503B091A1
:1005B00016031183008313821282B583A4832097CC
:1005C000D1F49093140380931303909316038093B4
:1005D000150390931803809317032196D093120369
:1005E000C09311031093100300930F03DF91CF9179
:1005F0001F910F91089513969C938E931297909349
:10060000160380931503E9CF0F931F93CF93DF93C6
:10061000EC018B0186E090E00E94A308FC01AC8114
:10062000BD811183008313821282B583A4838881E4
:100630009981009771F4FB83EA83FD83EC83FF8348
:10064000EE83019699838883DF91CF911F910F915B
:1006500008951396FC93EE931297FD83EC83F1CFEC
:10066000CF93DF93FC0120813181232BB1F0EC018A
:100670008A819B81009749F0EA81FB812281338145
:100680003B832A830E943F09F3CF1D821C821F8275
:100690001E821B821A8219821882DF91CF910895DF
:1006A000CF93DF93EC014E960E943003CE01469625
:1006B000DF91CF910C9430031F920F920FB60F92DF
:1006C00011242F933F938F939F93AF93BF93809168
:1006D000690190916A01A0916B01B0916C01309118
:1006E000680123E0230F2D3758F50196A11DB11D98
:1006F000209368018093690190936A01A0936B0134
:10070000B0936C018091640190916501A0916601A4
:10071000B09167010196A11DB11D80936401909372
:100720006501A0936601B0936701BF91AF919F915E
:100730008F913F912F910F900FBE0F901F901895A2
:1007400026E8230F0296A11DB11DD2CF1F920F9252
:100750000FB60F9211242F933F934F935F936F9394
:100760007F938F939F93AF93BF93EF93FF938DE608
:1007700091E00E94B801FF91EF91BF91AF919F91DD
:100780008F917F916F915F914F913F912F910F903A
:100790000FBE0F901F9018951F920F920FB60F92D9
:1007A00011242F938F939F93EF93FF93E0917D01FB
:1007B000F0917E018081E0918301F091840182FDBE
:1007C0001BC09081809186018F5F8F73209187017C
:1007D000821741F0E0918601F0E0E359FE4F958FDA
:1007E00080938601FF91EF919F918F912F910F90B0
:1007F0000FBE0F901F9018958081F4CF0F931F9319
:10080000CF93DF93EDE6F1E01382128288EE93E05E
:10081000A0E0B0E084839583A683B7838AE091E06B
:100820009183808385EC90E09587848784EC90E0C9
:100830009787868780EC90E0918B808B81EC90E0AD
:10084000938B828B82EC90E0958B848B86EC90E08E
:10085000978B868B118E128E138E148EEEE0F3E042
:1008600010821282118214821382168215821086DF
:1008700017821286118688EE92E02BE131E0FC01AE
:10088000318320831282138214821582168217828A
:100890001086118641E852E0578746872DE832E0FE
:1008A000318B208B138A128A148A158A178A168A2A
:1008B000118E108E138E128E158E148E178E168E2C
:1008C00011A210A213A212A215A214A202EC12E00D
:1008D0006AE271E0F80171836083128213821482EC
:1008E0001582168217821086118657874687318BAC
:1008F000208B138A128A148A158A178A168A118EF7
:10090000108E138E128E158E148E178E168E11A2C7
:1009100010A213A212A215A214A2ACE9B2E060E3E5
:1009200071E011967C936E9312961D921D921D920A
:100930001C92159716961D921D921D921C92199746
:100940001F965C934E931E9751963C932E9350970F
:1009500053961C921E92529754961C9254975596F9
:100960001C92559757961C921E92569759961C9218
:100970001E9258975B961C921E925A975D961C92F7
:100980001E925C975F961C921E925E9791961C92A7
:100990001E92909793961C921E92929795961C92F7
:1009A0001E929497C6E7D2E064E371E0798368838E
:1009B0001A821B821C821D821E821F821886198643
:1009C0005F874E87398B288B1B8A1A8A1C8A1D8A5F
:1009D0001F8A1E8A198E188E1B8E1A8E1D8E1C8ED3
:1009E0001F8E1E8E19A218A21BA21AA21DA21CA243
:1009F0002CE632E0F901918380838BE692E09383C9
:100A0000828315821482168217821086118681E6EF
:100A100092E0FC01D183C08313821282158214827A
:100A200048E853E160E070E0468357836087718750
:100A3000C7E5D2E0B983A8831B821A821D821C827B
:100A40004E835F8368877987ADE4B2E011961C938B
:100A50000E9313961C921E92129715961C921E923C
:100A6000149740E157E260E070E016964D935D9375
:100A70006D937C931997EDE3F2E08FEF9FEFDC012C
:100A800080839183A283B383148216821582108699
:100A9000178211862CE332E033872287148615866D
:100AA00016861786ECE2F2E080839183A283B383FB
:100AB0001482168215821086178221E021872BE28C
:100AC00032E0338722871486158616861786EBE177
:100AD000F2E080839183A283B3831482168215820D
:100AE0001086178242E04187338722871486158655
:100AF00016861786EBE0F2E080839183A283B383AE
:100B00001482168215821086178211868AE092E07E
:100B1000938782871486158616861786DF91CF9174
:100B20001F910F910895789484B5826084BD84B537
:100B3000816084BD85B5826085BD85B5816085BDD8
:100B400080916E00816080936E0010928100809190
:100B50008100826080938100809181008160809318
:100B60008100809180008160809380008091B1003D
:100B700084608093B1008091B00081608093B00068
:100B800080917A00846080937A0080917A008260FC
:100B900080937A0080917A00816080937A008091BE
:100BA0007A00806880937A001092C10062E082E04F
:100BB0000E94FD0061E08CE00E94FD0061E08BE09E
:100BC0000E94FD0061E08AE00E94FD00E0917D014D
:100BD000F0917E0182E08083E0917901F0917A01C9
:100BE0001082E0917B01F0917C0180E18083109282
:100BF0008501E0918101F091820186E08083E0919E
:100C00007F01F0918001808180618083E0917F018C
:100C1000F0918001808188608083E0917F01F09174
:100C20008001808180688083E0917F01F091800164
:100C300080818F7D80838BE391E00E946F0288EE3C
:100C400092E00E94C50282EC92E00E94C5028CE90B
:100C500092E00E94C50286E792E00E94C5026CE61F
:100C600072E088ED92E00E94040361E672E08EEF8C
:100C700092E00E94040367E572E08CE892E00E9433
:100C800004036DE472E082EB92E00E9404036DE3E2
:100C900072E08AEB92E00E9499026CE272E080EED0
:100CA00092E00E9499026BE172E084E992E00E9476
:100CB00099026BE072E084E992E00E94990282EC72
:100CC00092E09093100380930F0381E080930E03D2
:100CD00085E591E00E946202E0910F03F09110031C
:100CE000808191810E946F0288E191E00E946202FE
:100CF00055245394CC24CA94DC2C760130E0632E26
:100D000030E0732E9AEB292E90E0392EE2EEF0E0DF
:100D10008491EEECF0E0C491F101D491DD2309F46B
:100D200058C081110E94A600ED2FF0E0EE0FFF1FCA
:100D3000E557FF4FA591B4918C91C82331E020E095
:100D400009F430E0832F922FF1E08F278170809398
:100D50006B0280910E03882309F40CC1E091130308
:100D6000F0911403F0931803E0931703309709F4FC
:100D70001CC1C081D18180910F03909110032097F5
:100D800009F413C18C179D0771F48A819B81AC8192
:100D9000BD81892B8A2B8B2BF9F4E88DF98DFD8F82
:100DA000EC8F309789F58091110390911203892B74
:100DB00009F4FBC0E0911703F09118030280F3815E
:100DC000E02D309709F4F1C0F0931803E093170376
:100DD000D0CF90E080E0B8CF0E942E01E0910F03C9
:100DE000F09110030285138524853585601B710BF6
:100DF000820B930B02811381248135816017710767
:100E00008207930750F6CFCF00811181011511059C
:100E100051F2D8011496ED91FC911597309799F005
:100E20000995811136C08E899F89892B09F4BBCF22
:100E3000EC8DFD8D0280F381E02D309709F4B3CF66
:100E4000FD8FEC8FE1CF1296ED91FC91309711F070
:100E50008081E7CFF80186819781A085B185892BB4
:100E60008A2B8B2B01F38A849B84AC84BD840E94E3
:100E70002E01681979098A099B09D80116968D9067
:100E80009D90AD90BC901997681579058A059B05D2
:100E900050F2E801088119810115110509F483CF89
:100EA000A0910F03B09110035E968C915E978823FA
:100EB000A9F19096ED91FC9191979596FC93EE9304
:100EC0009497309759F10190F081E02D309731F1EE
:100ED0008185863090F48330B8F48823A9F0949605
:100EE000ED91FC9195970280F381E02D3097B1F060
:100EF0009596FC93EE939497E6CF863081F7028423
:100F0000F385E02D5082EBCF82859385EC0118822A
:100F10001482C082D182E282F382E1CF5096ED91B9
:100F2000FC91309709F009951093100300930F037B
:100F30000E942E01F8016287738784879587E0916C
:100F40000F03F0911003158A0684F785E02D309782
:100F500009F0099585E990E00E942702E0910F03CE
:100F6000F0911003808191810E946F0288E191E0ED
:100F70000E94620260913C028AE00E94CF00609170
:100F80002B028CE00E94CF0060910A028BE00E944D
:100F9000CF006114710409F4B9CE0E94A401882322
:100FA00009F4B0CE0E940000ADCEE0910F03F091A5
:100FB00010030288F389E02D309709F0099500911C
:100FC0000F0310911003D8015E968C915E978823D1
:100FD00089F29096ED91FC9191979596FC93EE9302
:100FE0009497309739F2C081D181209719F2898581
:100FF000823009F457C0A8F4882329F18130F9F030
:10100000E8018E8D9F8D892B09F4B4CFECA1FDA151
:101010000280F381E02D309709F4ACCFFDA3ECA35F
:10102000E2CF843009F442C090F0853049F7EA8578
:10103000FB8510828C818111E3CF5C8206C0EA853A
:10104000FB858083DDCFEA85FB855082D9CF8C81FB
:1010500081110AC0EA85FB8550820E942E016883B7
:1010600079838A839B835C820E942E018880998089
:10107000AA80BB80681979098A099B092C853D855E
:101080004E855F85261737074807590708F0B8CF00
:101090008C81882309F4B4CF181419041A041B0492
:1010A0000CF0AECFEA85FB851082AACF8C8181112E
:1010B0000AC00E942E01688379838A839B835C82A5
:1010C000EA85FB8510820E942E0188809980AA8083
:1010D000BB80681979098A099B092C853D854E8555
:1010E0005F85261737074807590708F089CF8C8195
:1010F000882309F485CF181419041A041B040CF072
:101100007FCFEA85FB855082C882D982EA82FB8242
:1011100077CF86E792E00E9450038CE992E00E942C
:10112000500382EC92E00E94500388EE92E00E940D
:10113000500381E193E00C943003EE0FFF1F059004
:10114000F491E02D09940F931F93CF93DF93823096
:10115000910510F482E090E0E0911B03F0911C03F4
:1011600030E020E0B0E0A0E0309799F4211531059F
:1011700009F44AC0281B390B24303105D8F58A817F
:101180009B816115710589F1FB0193838283FE01C7
:1011900011C0408151810281138148175907E0F045
:1011A0004817590799F4109761F012960C9312970B
:1011B00013961C933296CF01DF91CF911F910F911F
:1011C000089500931B0310931C03F4CF21153105E0
:1011D00051F04217530738F0A901DB019A01BD0114
:1011E000DF01F801C1CFEF01F9CF90931C03809389
:1011F0001B03CDCFFE01E20FF31F81939193225089
:10120000310939832883D7CF2091190330911A03EC
:10121000232B41F4209102013091030130931A03F2
:10122000209319032091000130910101211531050E
:1012300041F42DB73EB74091040150910501241BA4
:10124000350BE0911903F0911A03E217F307A0F4AC
:101250002E1B3F0B2817390778F0AC014E5F5F4F0C
:101260002417350748F04E0F5F1F50931A03409321
:101270001903819391939FCFF0E0E0E09CCFCF934F
:10128000DF930097E9F0FC01329713821282A0915C
:101290001B03B0911C03ED0130E020E01097A1F496
:1012A00020813181820F931F2091190330911A03FD
:1012B0002817390709F061C0F0931A03E093190366
:1012C000DF91CF910895EA01CE17DF07E8F54A8153
:1012D0005B819E0141155105B1F7E901FB83EA836A
:1012E00049915991C40FD51FEC17FD0761F4808116
:1012F00091810296840F951FE901998388838281E9
:1013000093819B838A83F0E0E0E012968D919C911B
:1013100013970097B9F52D913C911197CD01029645
:10132000820F931F2091190330911A032817390750
:1013300039F6309751F510921C0310921B03B093AD
:101340001A03A0931903BCCFD383C2834081518178
:10135000840F951FC817D90761F44E5F5F4F8881CE
:101360009981480F591F518340838A819B819383C0
:1013700082832115310509F0B0CFF0931C03E0936F
:101380001B039ECFFD01DC01C0CF13821282D7CF99
:1013900010E0CBE7D0E004C0FE010E949D0821963A
:1013A000CC37D107C9F7F894FFCF00001D038000A8
:1013B00000000000DA013A0167014202980176015B
:1013C0008A010D0A0043616C6C2073656D61706861
:1013D0006F726500477265656E00526564005965FD
:1013E0006C6C6F77005374617274696E672053740C
:1013F000617465204D616368696E652E2E2E004113
:0E14000063746976652073746174653A200028
:107E0000112484B714BE81FFF0D085E080938100F7
:107E100082E08093C00088E18093C10086E0809377
:107E2000C20080E18093C4008EE0C9D0259A86E02C
:107E300020E33CEF91E0309385002093840096BBD3
:107E4000B09BFECF1D9AA8958150A9F7CC24DD24C4
:107E500088248394B5E0AB2EA1E19A2EF3E0BF2EE7
:107E6000A2D0813461F49FD0082FAFD0023811F036
:107E7000013811F484E001C083E08DD089C08234E0
:107E800011F484E103C0853419F485E0A6D080C0E4
:107E9000853579F488D0E82EFF2485D0082F10E0AE
:107EA000102F00270E291F29000F111F8ED06801E7
:107EB0006FC0863521F484E090D080E0DECF843638
:107EC00009F040C070D06FD0082F6DD080E0C81688
:107ED00080E7D80618F4F601B7BEE895C0E0D1E017
:107EE00062D089930C17E1F7F0E0CF16F0E7DF06D8
:107EF00018F0F601B7BEE89568D007B600FCFDCFD4
:107F0000A601A0E0B1E02C9130E011968C91119780
:107F100090E0982F8827822B932B1296FA010C0160
:107F200087BEE89511244E5F5F4FF1E0A038BF0790
:107F300051F7F601A7BEE89507B600FCFDCF97BE46
:107F4000E89526C08437B1F42ED02DD0F82E2BD052
:107F50003CD0F601EF2C8F010F5F1F4F84911BD097
:107F6000EA94F801C1F70894C11CD11CFA94CF0C13
:107F7000D11C0EC0853739F428D08EE10CD085E9AC
:107F80000AD08FE07ACF813511F488E018D01DD067
:107F900080E101D065CF982F8091C00085FFFCCF94
:107FA0009093C60008958091C00087FFFCCF809118
:107FB000C00084FD01C0A8958091C6000895E0E648
:107FC000F0E098E1908380830895EDDF803219F02E
:107FD00088E0F5DFFFCF84E1DECF1F93182FE3DFCA
:107FE0001150E9F7F2DF1F91089580E0E8DFEE27F6
:047FF000FF270994CA
:027FFE00040479
:00000001FF
